:100000009CC0D0C0B5C0B4C0B3C0B2C0B1C0B0C055
:10001000AFC0AEC0ADC0ACC0ABC0AAC0A9C0A8C084
:10002000A7C0A6C0A5C00000020402050206020780
:1000300002080209020A020B020C020D020E020F54
:100040000210021102120213021402150216021704
:1000500002180219021A021B021C021D00000000F5
:100060000000000000000000000000000000000090
:100070000000000000000000000000000000000080
:100080000000000000000000000000000000000070
:1000900000000000000000000000000000530054B9
:1000A00000550056005700580063007F0081008013
:1000B0000059005A005B005C005D005E0501090606
:1000C000A101050719E029E715002501750195082B
:1000D0008102950175082565190029658100C0090F
:1000E0000222000101008032090400000103000027
:1000F00000092101010001222300070581030800F6
:100100000A1201100100000008424231E100010121
:1001100002000110034800490044004B00650079CB
:1001200000730012036F0062006400650076002E09
:100130000061007400040309040011241FBECFE510
:10014000D4E0DEBFCDBF10E0A0E6B0E0EEE9F8E01D
:1001500002C005900D92A236B107D9F720E0A2E6C1
:10016000B0E001C01D92AC39B207E1F70DD295C3E2
:1001700047CFA82FB92F80E090E041E050EA60958A
:1001800030E009C02D9182279795879510F084273C
:100190009527305EC8F36F5FA8F30895EADF8D936B
:1001A0009D930895CF93CFB7CF93C395809BE9F7E5
:1001B000809B09C0809B07C0809B05C0809B03C0BB
:1001C000809B01C0A3C0DF93C0917F00DD27CA5789
:1001D000DF4F809B02C0DF91EBCF2F930F931F93D4
:1001E00000B32FEF00FB20F94F933F9310B34FEF75
:1001F000012700FB21F93BE031C04E7F012F10B3F6
:10020000216028C0102F4D7F2260000000B329C05C
:100210004B7F2460012F000010B32BC010B3477F29
:1002200028602AC04F7E00B320612CC04F7D10B3E0
:1002300020622FC04F7B00B3206432C0422700B33E
:1002400049934FEF0000102710FB20F910B31570F1
:10025000C9F1297F91F2012700FB21F900B3237F27
:1002600089F2315058F1102710FB22F910B3277E84
:1002700079F2012700FB23F92F7C81F200B31027CC
:1002800010FB24F92F7971F200C010B3012700FB95
:1002900025F92F7359F200C000B3102710FB26F97F
:1002A000223040F200C010B3012700FB27F92430B0
:1002B00028F64F77206810B30000F9CF10E41ABF7A
:1002C000002719C03B503195C31BD04010E41ABF22
:1002D0000881033CF9F00B34E9F020917D0019818D
:1002E000110F1213EDCF4A81441F093641F10D322F
:1002F00011F0013E29F7009384003F914F911F9127
:100300000F912F91DF91CAB7C6FD4FCFCF91CFBFCD
:10031000CF91189520918400222379F310918200C7
:10032000112369F534306AF13093820020937E0006
:1003300010917F003BE0311B30937F0022C0009181
:1003400082000130E4F40AE54F7049F43091610015
:1003500034FD19C000936100C6E6D0E018C03091AA
:10036000710034FD10C000937100C2E7D0E00FC0EF
:100370002795A8F45150A9F4220F0000F9CF4AE5BF
:1003800003C042ED01C0432FC4E1D0E032E011B31D
:100390001560909A11BB02B320E415E05F9301272A
:1003A00056E002BB279520F4515021F4220FF9CFDB
:1003B000012756E000003B5A02BBD0F2279528F4F3
:1003C000515029F4220F0000F9CF012756E027955C
:1003D00002BB20F4515021F4220FF9CF012756E03F
:1003E0002991332302BB21F60A7F10918300110F5C
:1003F000C651D04002BB11F010937D0010E41ABF2B
:10040000016011B31A7F402F4A7F5F9100C000C086
:1004100002BB11BB42BB71CF8FEF88BB17BA85BB44
:1004200014BA8AEF82BB87E081BB90E003C080E012
:100430008150F1F79150D9F782E081BB85E083BF0D
:10044000089536B391E080E01EC0292F2323C9F41C
:10045000823079F030F4882351F0813009F45AC0A9
:1004600010C0843051F038F0853049F00AC085E47E
:10047000089587E4089588E4089589E408958AE456
:100480000895990F8F5F863000F333B391E080E0D9
:100490001DC0292F2323C1F4823071F028F4882352
:1004A00049F08130C9F110C0843051F038F0853006
:1004B00049F00AC08BE308958DE308958EE3089513
:1004C0008FE3089580E40895990F8F5F863008F3D5
:1004D00030B398E080E01AC0292F2323A9F482309A
:1004E00069F028F4882341F08130C1F00DC08330D9
:1004F00039F0843039F008C081E4089583E4089528
:1005000084E4089589E40895990F8F5F853020F37E
:1005100080E0089586E408958CE3089582E40895C8
:10052000E82FF0E0EE0FFF1FEA5DFF4F85919491F9
:1005300090936400809363000895FC0183E690E04B
:100540009093810080938000908190769032C1F4E6
:100550008181813021F475DFE3DF82E0089582300C
:1005600041F482E690E0909381008093800081E0E6
:1005700008958A3039F483818093620080E0089581
:1005800080E0089580E008959FE088E10FB6F89438
:10059000A89581BD0FBE91BD3FDF72D1789400E078
:1005A00010E0D0E001C0DC2FA89571D04ADFC82F41
:1005B000D81302C0CD2F01C011E008B600FE0CC058
:1005C00081E088BF80916200882331F0053010F00F
:1005D000055002C0082F11E0112329F3809171000A
:1005E00084FFE1CF8C2F9CDF62E083E690E04BD06C
:1005F00010E0D9CFDC01862F6623E1F0E091800086
:10060000F09181009091650096FF09C0962F24918A
:100610002C933196915011969111F9CF07C0962FD6
:1006200021912C93915011969111FACFF093810062
:10063000E093800008950F931F93CF93DC01C62FA2
:100640008A01FA01808184FF05C0918188E88927A9
:10065000818303C08AE5FA018083A8014E5F5F4F62
:100660009C2FFA012C912083915011963196911173
:10067000F9CF6C2FCA0192DDCC5FF801C083CF9116
:100680001F910F91089541E750E0D5DF0895CF9372
:10069000DF938091820083500AF4B6C090917F006E
:1006A0002CE030E0291B3109E901CA57DF4F909156
:1006B0007E009D3209F0A6C0883009F0A3C083EC0B
:1006C000809366008AE580936100109265008881BE
:1006D000807619F0CE0131DF8CC09A8110926F00C4
:1006E0008981811106C0109270002FE630E082E00F
:1006F0007CC0853031F4909383002FE630E080E0B9
:1007000074C0863009F051C08B81813041F481E0A2
:1007100091E0909381008093800082E142C082301A
:1007200041F48FED90E0909381008093800082E20D
:1007300038C08330F9F48A81811108C085E391E0E3
:10074000909381008093800084E02BC0813041F43D
:1007500083E291E0909381008093800082E121C048
:100760008230E1F483E191E09093810080938000F6
:1007700080E117C0813241F481EF90E090938100D5
:100780008093800089E00DC0823251F48CEB90E0C0
:10079000909381008093800083E203C080E001C0D9
:1007A00080E090E49093650024C0883099F089300F
:1007B00031F4909385002FE630E080E016C08A3057
:1007C00069F08B3079F48BE4809372002FE630E08F
:1007D00080E00BC025E830E081E007C02FE630E084
:1007E00081E003C02FE630E080E030938100209369
:1007F00080009F81911104C09E81981708F4892F71
:1008000080936000109282008091610084FF29C073
:10081000809160008F3F29F1893010F4682F01C06A
:1008200068E0861B80936000E6E6F0E0908188E84F
:100830008927808387E690E0DDDEC82F893058F471
:10084000682F87E690E0AADCCC5FCC3040F48FEFD5
:100850008093600004C08FEF80936000CEE1C0936E
:10086000610094E104C080B3857039F49150911116
:10087000FACF1092830010927D00DF91CF910895FE
:1008800085B7836085BF8BB780648BBFE1E7F0E0FD
:0E0890008BE481838AE580830895F894FFCF7E
:02089E00FF5AFF
:00000001FF
